{
  "_format": "hh-sol-artifact-1",
  "contractName": "Staking",
  "sourceName": "contracts/Staking.sol",
  "abi": [
    {
      "inputs": [
        {
          "internalType": "address",
          "name": "_to",
          "type": "address"
        }
      ],
      "stateMutability": "nonpayable",
      "type": "constructor"
    },
    {
      "anonymous": false,
      "inputs": [
        {
          "indexed": false,
          "internalType": "address",
          "name": "staker",
          "type": "address"
        },
        {
          "indexed": false,
          "internalType": "uint256",
          "name": "amount",
          "type": "uint256"
        }
      ],
      "name": "Stake",
      "type": "event"
    },
    {
      "inputs": [
        {
          "internalType": "address",
          "name": "",
          "type": "address"
        }
      ],
      "name": "balance",
      "outputs": [
        {
          "internalType": "uint256",
          "name": "",
          "type": "uint256"
        }
      ],
      "stateMutability": "view",
      "type": "function"
    },
    {
      "inputs": [],
      "name": "deadline",
      "outputs": [
        {
          "internalType": "uint256",
          "name": "",
          "type": "uint256"
        }
      ],
      "stateMutability": "view",
      "type": "function"
    },
    {
      "inputs": [],
      "name": "execute",
      "outputs": [],
      "stateMutability": "payable",
      "type": "function"
    },
    {
      "inputs": [],
      "name": "getContractBalance",
      "outputs": [
        {
          "internalType": "uint256",
          "name": "",
          "type": "uint256"
        }
      ],
      "stateMutability": "view",
      "type": "function"
    },
    {
      "inputs": [],
      "name": "owner",
      "outputs": [
        {
          "internalType": "address",
          "name": "",
          "type": "address"
        }
      ],
      "stateMutability": "view",
      "type": "function"
    },
    {
      "inputs": [],
      "name": "recipient",
      "outputs": [
        {
          "internalType": "address",
          "name": "",
          "type": "address"
        }
      ],
      "stateMutability": "view",
      "type": "function"
    },
    {
      "inputs": [],
      "name": "stake",
      "outputs": [],
      "stateMutability": "payable",
      "type": "function"
    },
    {
      "inputs": [],
      "name": "threshold",
      "outputs": [
        {
          "internalType": "uint256",
          "name": "",
          "type": "uint256"
        }
      ],
      "stateMutability": "view",
      "type": "function"
    },
    {
      "inputs": [],
      "name": "withdraw",
      "outputs": [],
      "stateMutability": "payable",
      "type": "function"
    }
  ],
  "bytecode": "0x608060405234801561001057600080fd5b50604051610bd9380380610bd9833981810160405281019061003291906100e2565b336000806101000a81548173ffffffffffffffffffffffffffffffffffffffff021916908373ffffffffffffffffffffffffffffffffffffffff160217905550611c2042610080919061010b565b60018190555080600360006101000a81548173ffffffffffffffffffffffffffffffffffffffff021916908373ffffffffffffffffffffffffffffffffffffffff160217905550506101e3565b6000815190506100dc816101cc565b92915050565b6000602082840312156100f457600080fd5b6000610102848285016100cd565b91505092915050565b600061011682610193565b915061012183610193565b9250827fffffffffffffffffffffffffffffffffffffffffffffffffffffffffffffffff038211156101565761015561019d565b5b828201905092915050565b600061016c82610173565b9050919050565b600073ffffffffffffffffffffffffffffffffffffffff82169050919050565b6000819050919050565b7f4e487b7100000000000000000000000000000000000000000000000000000000600052601160045260246000fd5b6101d581610161565b81146101e057600080fd5b50565b6109e7806101f26000396000f3fe6080604052600436106100865760003560e01c8063614619541161005957806361461954146100f557806366d003ac146100ff5780636f9fb98a1461012a5780638da5cb5b14610155578063e3d670d71461018057610086565b806329dcb0cf1461008b5780633a4b66f1146100b65780633ccfd60b146100c057806342cde4e8146100ca575b600080fd5b34801561009757600080fd5b506100a06101bd565b6040516100ad91906107d5565b60405180910390f35b6100be6101c3565b005b6100c8610293565b005b3480156100d657600080fd5b506100df6103c5565b6040516100ec91906107d5565b60405180910390f35b6100fd6103d1565b005b34801561010b57600080fd5b50610114610587565b6040516101219190610711565b60405180910390f35b34801561013657600080fd5b5061013f6105ad565b60405161014c91906107d5565b60405180910390f35b34801561016157600080fd5b5061016a6105b5565b6040516101779190610711565b60405180910390f35b34801561018c57600080fd5b506101a760048036038101906101a29190610606565b6105d9565b6040516101b491906107d5565b60405180910390f35b60015481565b34600260003373ffffffffffffffffffffffffffffffffffffffff1673ffffffffffffffffffffffffffffffffffffffff1681526020019081526020016000206000828254610212919061080c565b925050819055507febedb8b3c678666e7f36970bc8f57abf6d8fa2e828c0da91ea5b75bf68ed101a33600260003373ffffffffffffffffffffffffffffffffffffffff1673ffffffffffffffffffffffffffffffffffffffff1681526020019081526020016000205460405161028992919061072c565b60405180910390a1565b60015442116102d7576040517f08c379a00000000000000000000000000000000000000000000000000000000081526004016102ce90610775565b60405180910390fd5b60003373ffffffffffffffffffffffffffffffffffffffff16600260003373ffffffffffffffffffffffffffffffffffffffff1673ffffffffffffffffffffffffffffffffffffffff1681526020019081526020016000205460405161033c906106fc565b60006040518083038185875af1925050503d8060008114610379576040519150601f19603f3d011682016040523d82523d6000602084013e61037e565b606091505b50509050806103c2576040517f08c379a00000000000000000000000000000000000000000000000000000000081526004016103b990610795565b60405180910390fd5b50565b670de0b6b3a764000081565b60008054906101000a900473ffffffffffffffffffffffffffffffffffffffff1673ffffffffffffffffffffffffffffffffffffffff163373ffffffffffffffffffffffffffffffffffffffff161461045f576040517f08c379a0000000000000000000000000000000000000000000000000000000008152600401610456906107b5565b60405180910390fd5b60015442108015610477575047670de0b6b3a7640000105b6104b6576040517f08c379a00000000000000000000000000000000000000000000000000000000081526004016104ad90610755565b60405180910390fd5b6000600360009054906101000a900473ffffffffffffffffffffffffffffffffffffffff1673ffffffffffffffffffffffffffffffffffffffff16476040516104fe906106fc565b60006040518083038185875af1925050503d806000811461053b576040519150601f19603f3d011682016040523d82523d6000602084013e610540565b606091505b5050905080610584576040517f08c379a000000000000000000000000000000000000000000000000000000000815260040161057b90610795565b60405180910390fd5b50565b600360009054906101000a900473ffffffffffffffffffffffffffffffffffffffff1681565b600047905090565b60008054906101000a900473ffffffffffffffffffffffffffffffffffffffff1681565b60026020528060005260406000206000915090505481565b6000813590506106008161099a565b92915050565b60006020828403121561061857600080fd5b6000610626848285016105f1565b91505092915050565b61063881610862565b82525050565b600061064b600b836107fb565b9150610656826108cd565b602082019050919050565b600061066e600b836107fb565b9150610679826108f6565b602082019050919050565b60006106916012836107fb565b915061069c8261091f565b602082019050919050565b60006106b46000836107f0565b91506106bf82610948565b600082019050919050565b60006106d76021836107fb565b91506106e28261094b565b604082019050919050565b6106f681610894565b82525050565b6000610707826106a7565b9150819050919050565b6000602082019050610726600083018461062f565b92915050565b6000604082019050610741600083018561062f565b61074e60208301846106ed565b9392505050565b6000602082019050818103600083015261076e8161063e565b9050919050565b6000602082019050818103600083015261078e81610661565b9050919050565b600060208201905081810360008301526107ae81610684565b9050919050565b600060208201905081810360008301526107ce816106ca565b9050919050565b60006020820190506107ea60008301846106ed565b92915050565b600081905092915050565b600082825260208201905092915050565b600061081782610894565b915061082283610894565b9250827fffffffffffffffffffffffffffffffffffffffffffffffffffffffffffffffff038211156108575761085661089e565b5b828201905092915050565b600061086d82610874565b9050919050565b600073ffffffffffffffffffffffffffffffffffffffff82169050919050565b6000819050919050565b7f4e487b7100000000000000000000000000000000000000000000000000000000600052601160045260246000fd5b7f4e6f7420796574206d6574000000000000000000000000000000000000000000600082015250565b7f4e6f7420596574204d6574000000000000000000000000000000000000000000600082015250565b7f53656e64204574686572204661696c7572650000000000000000000000000000600082015250565b50565b7f43757272656e746c792c206f6e6c79206f776e65722063616e2065786563757460008201527f6500000000000000000000000000000000000000000000000000000000000000602082015250565b6109a381610862565b81146109ae57600080fd5b5056fea2646970667358221220c92bc6d8ac248af81ea315d229b4896072d378c0f66efe196106ce81121040e664736f6c63430008030033",
  "linkReferences": {},
  "deployedLinkReferences": {}
}