{
  "_format": "hh-sol-artifact-1",
  "contractName": "Staking",
  "sourceName": "contracts/Staking.sol",
  "abi": [
    {
      "inputs": [
        {
          "internalType": "address",
          "name": "_to",
          "type": "address"
        }
      ],
      "stateMutability": "nonpayable",
      "type": "constructor"
    },
    {
      "anonymous": false,
      "inputs": [
        {
          "indexed": false,
          "internalType": "address",
          "name": "staker",
          "type": "address"
        },
        {
          "indexed": false,
          "internalType": "uint256",
          "name": "amount",
          "type": "uint256"
        }
      ],
      "name": "Stake",
      "type": "event"
    },
    {
      "inputs": [
        {
          "internalType": "address",
          "name": "",
          "type": "address"
        }
      ],
      "name": "balance",
      "outputs": [
        {
          "internalType": "uint256",
          "name": "",
          "type": "uint256"
        }
      ],
      "stateMutability": "view",
      "type": "function"
    },
    {
      "inputs": [],
      "name": "deadline",
      "outputs": [
        {
          "internalType": "uint256",
          "name": "",
          "type": "uint256"
        }
      ],
      "stateMutability": "view",
      "type": "function"
    },
    {
      "inputs": [],
      "name": "execute",
      "outputs": [],
      "stateMutability": "payable",
      "type": "function"
    },
    {
      "inputs": [],
      "name": "getContractBalance",
      "outputs": [
        {
          "internalType": "uint256",
          "name": "",
          "type": "uint256"
        }
      ],
      "stateMutability": "view",
      "type": "function"
    },
    {
      "inputs": [],
      "name": "owner",
      "outputs": [
        {
          "internalType": "address",
          "name": "",
          "type": "address"
        }
      ],
      "stateMutability": "view",
      "type": "function"
    },
    {
      "inputs": [],
      "name": "recipient",
      "outputs": [
        {
          "internalType": "address",
          "name": "",
          "type": "address"
        }
      ],
      "stateMutability": "view",
      "type": "function"
    },
    {
      "inputs": [],
      "name": "stake",
      "outputs": [],
      "stateMutability": "payable",
      "type": "function"
    },
    {
      "inputs": [],
      "name": "threshold",
      "outputs": [
        {
          "internalType": "uint256",
          "name": "",
          "type": "uint256"
        }
      ],
      "stateMutability": "view",
      "type": "function"
    },
    {
      "inputs": [],
      "name": "withdraw",
      "outputs": [],
      "stateMutability": "payable",
      "type": "function"
    }
  ],
  "bytecode": "0x60806040523480156200001157600080fd5b5060405162000dee38038062000dee8339818101604052810190620000379190620000ec565b336000806101000a81548173ffffffffffffffffffffffffffffffffffffffff021916908373ffffffffffffffffffffffffffffffffffffffff160217905550611c204262000087919062000118565b60018190555080600360006101000a81548173ffffffffffffffffffffffffffffffffffffffff021916908373ffffffffffffffffffffffffffffffffffffffff16021790555050620001fc565b600081519050620000e681620001e2565b92915050565b600060208284031215620000ff57600080fd5b60006200010f84828501620000d5565b91505092915050565b60006200012582620001a9565b91506200013283620001a9565b9250827fffffffffffffffffffffffffffffffffffffffffffffffffffffffffffffffff038211156200016a5762000169620001b3565b5b828201905092915050565b6000620001828262000189565b9050919050565b600073ffffffffffffffffffffffffffffffffffffffff82169050919050565b6000819050919050565b7f4e487b7100000000000000000000000000000000000000000000000000000000600052601160045260246000fd5b620001ed8162000175565b8114620001f957600080fd5b50565b610be2806200020c6000396000f3fe6080604052600436106100865760003560e01c8063614619541161005957806361461954146100f557806366d003ac146100ff5780636f9fb98a1461012a5780638da5cb5b14610155578063e3d670d71461018057610086565b806329dcb0cf1461008b5780633a4b66f1146100b65780633ccfd60b146100c057806342cde4e8146100ca575b600080fd5b34801561009757600080fd5b506100a06101bd565b6040516100ad9190610981565b60405180910390f35b6100be6101c3565b005b6100c8610311565b005b3480156100d657600080fd5b506100df610443565b6040516100ec9190610981565b60405180910390f35b6100fd61044f565b005b34801561010b57600080fd5b50610114610605565b604051610121919061088d565b60405180910390f35b34801561013657600080fd5b5061013f61062b565b60405161014c9190610981565b60405180910390f35b34801561016157600080fd5b5061016a610633565b604051610177919061088d565b60405180910390f35b34801561018c57600080fd5b506101a760048036038101906101a29190610749565b610657565b6040516101b49190610981565b60405180910390f35b60015481565b34600260003373ffffffffffffffffffffffffffffffffffffffff1673ffffffffffffffffffffffffffffffffffffffff168152602001908152602001600020600082825461021291906109c3565b925050819055506102976040518060400160405280600781526020017f7361647364617300000000000000000000000000000000000000000000000000815250600260003373ffffffffffffffffffffffffffffffffffffffff1673ffffffffffffffffffffffffffffffffffffffff1681526020019081526020016000205461066f565b7febedb8b3c678666e7f36970bc8f57abf6d8fa2e828c0da91ea5b75bf68ed101a33600260003373ffffffffffffffffffffffffffffffffffffffff1673ffffffffffffffffffffffffffffffffffffffff168152602001908152602001600020546040516103079291906108a8565b60405180910390a1565b6001544211610355576040517f08c379a000000000000000000000000000000000000000000000000000000000815260040161034c90610921565b60405180910390fd5b60003373ffffffffffffffffffffffffffffffffffffffff16600260003373ffffffffffffffffffffffffffffffffffffffff1673ffffffffffffffffffffffffffffffffffffffff168152602001908152602001600020546040516103ba90610878565b60006040518083038185875af1925050503d80600081146103f7576040519150601f19603f3d011682016040523d82523d6000602084013e6103fc565b606091505b5050905080610440576040517f08c379a000000000000000000000000000000000000000000000000000000000815260040161043790610941565b60405180910390fd5b50565b670de0b6b3a764000081565b60008054906101000a900473ffffffffffffffffffffffffffffffffffffffff1673ffffffffffffffffffffffffffffffffffffffff163373ffffffffffffffffffffffffffffffffffffffff16146104dd576040517f08c379a00000000000000000000000000000000000000000000000000000000081526004016104d490610961565b60405180910390fd5b600154421080156104f5575047670de0b6b3a7640000105b610534576040517f08c379a000000000000000000000000000000000000000000000000000000000815260040161052b90610901565b60405180910390fd5b6000600360009054906101000a900473ffffffffffffffffffffffffffffffffffffffff1673ffffffffffffffffffffffffffffffffffffffff164760405161057c90610878565b60006040518083038185875af1925050503d80600081146105b9576040519150601f19603f3d011682016040523d82523d6000602084013e6105be565b606091505b5050905080610602576040517f08c379a00000000000000000000000000000000000000000000000000000000081526004016105f990610941565b60405180910390fd5b50565b600360009054906101000a900473ffffffffffffffffffffffffffffffffffffffff1681565b600047905090565b60008054906101000a900473ffffffffffffffffffffffffffffffffffffffff1681565b60026020528060005260406000206000915090505481565b61070782826040516024016106859291906108d1565b6040516020818303038152906040527f9710a9d0000000000000000000000000000000000000000000000000000000007bffffffffffffffffffffffffffffffffffffffffffffffffffffffff19166020820180517bffffffffffffffffffffffffffffffffffffffffffffffffffffffff838183161783525050505061070b565b5050565b60008151905060006a636f6e736f6c652e6c6f679050602083016000808483855afa5050505050565b60008135905061074381610b95565b92915050565b60006020828403121561075b57600080fd5b600061076984828501610734565b91505092915050565b61077b81610a19565b82525050565b600061078c8261099c565b61079681856109b2565b93506107a6818560208601610a55565b6107af81610ab7565b840191505092915050565b60006107c7600b836109b2565b91506107d282610ac8565b602082019050919050565b60006107ea600b836109b2565b91506107f582610af1565b602082019050919050565b600061080d6012836109b2565b915061081882610b1a565b602082019050919050565b60006108306000836109a7565b915061083b82610b43565b600082019050919050565b60006108536021836109b2565b915061085e82610b46565b604082019050919050565b61087281610a4b565b82525050565b600061088382610823565b9150819050919050565b60006020820190506108a26000830184610772565b92915050565b60006040820190506108bd6000830185610772565b6108ca6020830184610869565b9392505050565b600060408201905081810360008301526108eb8185610781565b90506108fa6020830184610869565b9392505050565b6000602082019050818103600083015261091a816107ba565b9050919050565b6000602082019050818103600083015261093a816107dd565b9050919050565b6000602082019050818103600083015261095a81610800565b9050919050565b6000602082019050818103600083015261097a81610846565b9050919050565b60006020820190506109966000830184610869565b92915050565b600081519050919050565b600081905092915050565b600082825260208201905092915050565b60006109ce82610a4b565b91506109d983610a4b565b9250827fffffffffffffffffffffffffffffffffffffffffffffffffffffffffffffffff03821115610a0e57610a0d610a88565b5b828201905092915050565b6000610a2482610a2b565b9050919050565b600073ffffffffffffffffffffffffffffffffffffffff82169050919050565b6000819050919050565b60005b83811015610a73578082015181840152602081019050610a58565b83811115610a82576000848401525b50505050565b7f4e487b7100000000000000000000000000000000000000000000000000000000600052601160045260246000fd5b6000601f19601f8301169050919050565b7f4e6f7420796574206d6574000000000000000000000000000000000000000000600082015250565b7f4e6f7420596574204d6574000000000000000000000000000000000000000000600082015250565b7f53656e64204574686572204661696c7572650000000000000000000000000000600082015250565b50565b7f43757272656e746c792c206f6e6c79206f776e65722063616e2065786563757460008201527f6500000000000000000000000000000000000000000000000000000000000000602082015250565b610b9e81610a19565b8114610ba957600080fd5b5056fea26469706673582212201fc368f2f375d57892214a0d1a6551caca7476b1039d05d34c177c0b01704ca364736f6c63430008030033",
  "linkReferences": {},
  "deployedLinkReferences": {}
}